:020000040800F2
:10000000501F00209D0100084F2500081D230008F7
:100010004D250008C5080008D16700080000000051
:10002000000000000000000000000000252A000879
:10003000E9090008000000006D290008952A000861
:10004000B7010008B7010008B7010008B7010008B0
:10005000B7010008B7010008B7010008B7010008A0
:10006000B7010008B7010008B7010008B701000890
:10007000B7010008B7010008B7010008B701000880
:10008000B7010008B7010008B7010008B701000870
:10009000B7010008B7010008B7010008B701000860
:1000A000B7010008B7010008B7010008B701000850
:1000B000B7010008B7010008B7010008B701000840
:1000C000B7010008B7010008B7010008B701000830
:1000D000B7010008B7010008B7010008B701000820
:1000E000B7010008B7010008B7010008B701000810
:1000F000B7010008B7010008B7010008B701000800
:10010000B7010008B7010008B7010008B7010008EF
:10011000B7010008B7010008B7010008B7010008DF
:10012000B7010008B7010008B7010008B7010008CF
:10013000B70100080000000000000000B70100083F
:10014000B7010008B7010008B701000875250008CD
:10015000B7010008B7010008B7010008B70100089F
:10016000B7010008B7010008B7010008B70100088F
:10017000B7010008B70100080000000000000000FF
:10018000B7010008B7010008DFF80CD000F0CAFA88
:100190000048004755790008501F00200648804756
:1001A00006480047FEE7FEE7FEE7FEE7FEE7FEE75C
:1001B000FEE7FEE7FEE7FEE7492B0008890100089D
:1001C0002DE9F05F0546002092469B46884606468C
:1001D000814640241BE0284641464746224600F01F
:1001E00082F953465A46C01A914110D31146184617
:1001F000224600F069F92D1A67EB01084F462246A6
:100200000120002100F060F917EB00094E41201E8B
:10021000A4F10104DFDC484631462A464346BDE8E6
:10022000F09F40EA01039B0703D009E008C9121FB1
:1002300008C0042AFAD203E011F8013B00F8013BA0
:10024000521EF9D27047D2B201E000F8012B491ECC
:10025000FBD270470022F6E710B513460A46044663
:100260001946FFF7F0FF204610BD2DE9FE4F8046EE
:1002700081EA0300C00F0C46009021F0004123F0FA
:100280000045B8EB0200A94105D240462146904600
:100290001C460B46024623F00040104347D0270D72
:1002A000C7F30A00C3F30A510290401A0190402894
:1002B0006BDAC3F3130040F4801B0098924620B120
:1002C0000023D2EB030A63EB0B0B01985946C0F1F4
:1002D0004002504600F0F8F806460D465046594692
:1002E000019A00F010F910EB08006141002487EA40
:1002F000115284EAE7731A4340D0009A62B3019A1C
:10030000012A4FEA075215DC001B61EB02014FF096
:10031000004202EA0752CDE90042001C41F580117B
:1003200032462B4600F010F903B0BDE8F08F40468E
:100330002146F9E7001B61EB0201001C41F5801327
:1003400000185B412018A2F5001747EB030140EAB3
:10035000D570B6196D4111E06D084FEA360645EAD1
:10036000C0754FEA0752001B61EB0201001C41F50A
:10037000801149084FEA30000019514132462B469E
:1003800003B0BDE8F04F00F0D0B800980122400063
:100390000023D0EB020263EBE073009821464FEAA2
:1003A000E074B8EB000061EB0401E9E783F000437F
:1003B0005BE781F0004158E72DE9FE4F81EA030435
:1003C00004F0004421F0004100944FF0000B23F0B2
:1003D000004350EA01045ED052EA03045BD0C3F349
:1003E0000A54C1F30A552C44A4F2F3340194A0FB3F
:1003F0000254C1F3130141F48011C3F3130343F416
:10040000801301FB024400FB034E840A970A44EA6E
:10041000815447EA8357A4FB076802958D0A05FBC0
:1004200007854FEA932C04FB0C542705029D4FEAE5
:10043000065847EA1637B5EB08056EEB070C870E32
:10044000920E47EA811742EA8312A7FB0201B6EB3C
:100450000B0164EB00042B0D43EA0C335E1844EBF4
:100460001C50DA465146E7FB0201C5F313044FEA7C
:100470000B3343EA14534FEA0432019C43EA060368
:10048000A4F10C040294009CCDE900B400F05CF8E7
:1004900003B0BDE8F08F00200146F9E730B50B4608
:1004A000014600202022012409E021FA02F59D42A4
:1004B00005D303FA02F5491B04FA02F52844151E78
:1004C000A2F10102F1DC30BD202A04DB203A00FA5F
:1004D00002F1002070479140C2F1200320FA03F39B
:1004E000194390407047202A04DB203A21FA02F099
:1004F0000021704721FA02F3D040C2F1200291405E
:10050000084319467047202A06DBCB17203A41FAE8
:1005100002F043EAE07306E041FA02F3D040C2F190
:100520002002914008431946704710B5141E73F11C
:10053000000408DA401C41F1000192185B411A43A3
:1005400001D120F0010010BD2DE9F04D92469B46EF
:1005500011B1B1FA81F202E0B0FA80F22032904695
:10056000FFF7B2FF04460F4640EA0A0041EA0B01DA
:1005700053465A46084313D0114653EA010019D096
:10058000C8F140025046FFF7AEFF05460E46504602
:1005900059464246FFF798FF084305D0012004E082
:1005A00020463946BDE8F08D0020054346EAE07656
:1005B0002C4337430A986305E40AA0EB08000022A5
:1005C000FD0A44EA47540A3002D500200146E9E713
:1005D000010510196941DDE9084500196941BDE8C7
:1005E000F04DA2E72DE9F04D81EA030404F0004B41
:1005F00021F0004514464FF0000A23F0004150EA74
:10060000050220D054EA01021DD0C5F30A57024664
:10061000C5F31303C1F31300C1F30A5640F4801568
:1006200043F48013A7EB0608101BD64608F2FD38EA
:1006300073EB050002D308F1010801E092185B4159
:10064000B8F1000F03DA00200146BDE8F08D00206C
:100650004FF48011064684460EE0171B73EB050726
:1006600005D3121B63EB050306434CEA010C490852
:100670004FEA300092185B4150EA0107EDD152EA8F
:10068000030012D082EA040083EA0501084305D082
:10069000101BAB4106D20122002306E000224FF0DE
:1006A000004302E06FF0010253101AEB06004CEB1E
:1006B000085110EB0A0041EB0B01BDE8F04DFFF7CC
:1006C00034BFC1F30A52C1F3130140F2FF3341F4C6
:1006D00080119A4202DA00200146704740F233430B
:1006E0009A42A2F2334202DC5242FFF7FCBEFFF70D
:1006F000EBBE000030B5041E71F1000404DB4FF0C6
:100700000044404264EB0101141E73F1000405DB58
:100710001C464FF00043524263EB0403994208BF6A
:10072000904230BD064C074D06E0E06840F0010302
:1007300094E8070098471034AC42F6D3FFF728FD41
:10074000DC7D0008FC7D000870B58C1810F8015B9A
:1007500015F0070301D110F8013B2A1106D110F85A
:10076000012B03E010F8016B01F8016B5B1EF9D15E
:100770002B0705D40023521E0DD401F8013BFAE7E4
:1007800010F8013BCB1A921C03E013F8015B01F84F
:10079000015B521EF9D5A142D8D3002070BD0000E4
:1007A000454910B54A6822F440324A604A684368B5
:1007B0001A434A6001684A6822F480724A600168FC
:1007C0004A68036942EA03224A6001684A6822F0E3
:1007D00040724A6001684A6883681A434A60016847
:1007E0008A6822F400628A6001688A68C3681A43D2
:1007F0008A60816A6FF07062D14201688A6822F073
:1008000070628A6001688A680CD0836A1A438A60C1
:1008100001688A6822F040528A6001688A68C36A67
:100820001A4301E022F040528A6001688A6822F08F
:1008300002028A6001688A68836942EA43028A6028
:10084000016A002901684A680FD042F400624A60D8
:1008500001684A6822F460424A6001684A68174C9D
:10086000436A04EB43331A4301E022F400624A6016
:100870000168CA6A22F47002CA620168CA6A838B7C
:100880000F4C04EB03531A43CA6201688A6822F4CE
:1008900000728A6001688A68036B42EA43228A60B8
:1008A00001688A6822F480628A6001688A68406907
:1008B00042EA8020886010BD0023014000E0FFFF75
:1008C0000000F0FFFEE770B50546D0F84405C469A6
:1008D00094F84E0003281BD0042818D1217B284609
:1008E00004F042F8012812D1217B284604F018F8C0
:1008F000A16A80B2814213D0628B824210D2091A5F
:10090000A162216A08442062032084F84E0070BD71
:10091000237B628B2846216A03F07AF90420F4E7EE
:10092000002084F84E00284603F0CEFA70BDF8B5DA
:100930000646D0F844050125C46994F84D00012805
:100940000AD0022807D1617B304604F00DF8012857
:1009500011D002281AD0F8BD228B606A0095637B03
:10096000904200D882B23046E16903F061F902207A
:1009700084F84D00F8BD208B626A0021824208D9BC
:10098000121A6262E3691844E06103D084F84D50A2
:10099000F8BD616284F84D10304603F098FAF8BD56
:1009A00010B500224FEA020100EB8203521CC3F88B
:1009B0004C150F2AF8D300224FF400738418521CF0
:1009C00084F81C119A42F9D301704170012282709F
:1009D000C0F88815027640238371417680F81C1395
:1009E00080F81D23002010BD7047A122027421222F
:1009F00042740022428282820722C28203F08BBAB2
:100A000078B50024009490F83C20012A19D00122E6
:100A100080F83C200A6807230568092A13D9EE6884
:100A20000A3A02EB420293409E43EE600B788A68DA
:100A30000A3B03EB43039A400368DD682A43DA600C
:100A400010E0022078BD2E6902EB420293409E43E3
:100A50002E610B788A6803EB43039A4003681D6993
:100A60002A431A614A681F23072A13D205686E6B4E
:100A7000521E02EB820293409E436E630B790A88FA
:100A80005B1E92B203EB83039A4003685D6B2A43BB
:100A90005A6327E005680D2A12D22E6BD21F02EB93
:100AA000820293409E432E630B790A88DB1F92B229
:100AB00003EB83039A4003681D6B2A431A6311E01A
:100AC000EE6A0D3A02EB820293409E43EE620B798E
:100AD0000A880D3B92B203EB83039A400368DD6AF8
:100AE0002A43DA62164B0568144A9D4206D10D6806
:100AF000122D03D1556845F48005556005689D4267
:100B000018D10B68102B01D0112B13D1536843F46B
:100B100000035360096810290CD10A490A4A096880
:100B2000B1FBF2F101EB8101490000E0491E0091A7
:100B30000029FBD180F83C40002078BD0023014013
:100B4000002001402005002040420F0070B5040045
:100B50004FF0000503D0206C002610B107E0012003
:100B600070BD666484F83C60204600F019F8206C83
:100B7000C00610D4206C20F4885040F0020020649D
:100B80002046FFF70DFE6664206C20F0020040F066
:100B90000100206400E0012584F83C60284670BD17
:100BA00000B500680C4987B0884212D10B4800217B
:100BB000026842F480720260006800F48070059060
:100BC000022000900320CDE901016946044800F0AD
:100BD00017F807B000BD0000002001404438024073
:100BE0000000024031B500F0F1F8009C0546601CA1
:100BF00000D0641C00F0EAF8401BA042FAD338BDD4
:100C00002DE9F84FDFF87CB100224FF001084FF0DA
:100C1000030A4FF00F090BF1040E00BF0B6808FA2E
:100C200002F42340A3426ED14D68022D01D0122D53
:100C30000ED1D50800EB850CDCF820505607F70ED6
:100C400009FA07F6B5430E69BE402E43CCF8206082
:100C5000066855000F790AFA05FC07F0030726EA33
:100C60000C06AF40374307604E68012E05D0022EB8
:100C700003D0112E01D0122E0ED18668CF6826EA3D
:100C80000C06AF40374387604668A6430C79C4F32F
:100C90000014944034434460C6688C6826EA0C060D
:100CA000AC403443C4604C68E40065D5364C2568DC
:100CB00045F480452560246822F0030504F480444F
:100CC0000094324C2E19D6F8084895072F0F09FAD0
:100CD00007F5AC432E4DA84201D1002524E02D4D4F
:100CE000A84201D101251FE02B4DA84201D10225C8
:100CF0001AE02A4DA84201D1032515E0284DA8424B
:100D000002D1042510E037E0264DA84201D1052587
:100D10000AE0254DA84201D1062505E0234DA84251
:100D200001D1072500E00825BD402543C6F8085835
:100D3000DBF800405D464E689C43F60300D51C433B
:100D40002C60DEF8004075464E689C43B60300D523
:100D50001C432C600B4D08352C684E689C43F602F2
:100D600000D51C432C60074D0C352C684E689C4305
:100D7000B60200D51C432C60521C102AFFF44EAF63
:100D8000BDE8F88F003C014044380240003001408B
:100D9000000002400004024000080240000C024033
:100DA000001002400014024000180240001C0240E3
:100DB0000069084000D00120704742694A40426102
:100DC00070470AB1816170470904FBE70148006878
:100DD000704700001C050020D0F8940203F06ABDA3
:100DE000D0F8940203F07ABD006805F0CBB9006832
:100DF00005F0CCB901EB810100EBC10090F85C007B
:100E0000704701EB810100EBC100C06C704710B569
:100E1000044690F89002012809D0012084F890023D
:100E2000206805F0BEF9002084F8900210BD022071
:100E300010BDFEB50546DDE9096095F89042089FB2
:100E4000012C1ED0012485F8904201EB810405EBB2
:100E5000C40402F07F0C04F8383F20816170E67111
:100E600084F802C04FEAD21C84F803C027710097AF
:100E7000CDE90160286805F039FA002185F8901263
:100E8000FEBD0220FEBD70472DE9F00301EB810499
:100E9000DDE90689DDE908C700EBC404022684F811
:100EA0003B2084F83F30B8F1000F0AD084F842604C
:100EB000002553B1012B3FD0022B1DD0032B2AD18B
:100EC00020E0032584F84250F2E7B8F1010F22D167
:100ED0000ABBBCF1000F10D1012284F8512002E0BE
:100EE00084F8425001E084F8426094F85C20022AC1
:100EF00011D084F83D700EE02AB994F85120002AF0
:100F0000F1D1EDE712B194F8502001E094F85120AE
:100F100092B184F84260C4E9119C84F85C50E564A5
:100F200084F8391084F85D50027C04F138010068BF
:100F3000BDE8F00305F056BA84F84250EBE7000034
:100F40002DE9F041044600680025064605F025F924
:100F500001287DD1206805F08EFB002878D020681C
:100F600005F089FB800203D521684FF40010486129
:100F7000206805F080FBC00203D521684FF4801083
:100F80004861206805F077FB400103D521684FF0E8
:100F900080604861206805F06EFB800702D52168FB
:100FA00002204861206805F066FB800010D5D6F865
:100FB000400420F02E00C6F840042046FFF710FF42
:100FC0000121206805F03CFB21684FF0005048618A
:100FD000206805F050FBC00102D5204601F00FF952
:100FE000206805F048FB000705D5204600F0A1F871
:100FF000216808204861206805F03DFB800120D56C
:10100000206805F0E8F907464FF0010812E000BF3C
:1010100008FA05F038420CD006EB4510D0F8000570
:10102000E9B20004204602D500F0C5FE01E000F060
:10103000DBFF6D1CA068A842EAD821684FF0007061
:101040004861206805F017FBC0060ED5206800E057
:101050000BE0816921F010018161204601F026F941
:101060002068816941F010018161BDE8F08130B5EF
:101070008BB0040026D0032084F89102204600F0B3
:1010800023F8206805F01AF804F1100128220D4613
:101090006846FFF7C6F894E80F0004F0BDFF012191
:1010A000206805F012FB282229466846FFF7B9F8A8
:1010B00094E80F0005F05AFA012084F8910200200C
:1010C0000BB030BD0120FBE700B5006887B0B0F180
:1010D000A04F25D14FF4C050009002200190002075
:1010E0000290032003900A20049069460D48FFF700
:1010F00087FD0D48016841F0800101600A48103009
:10110000016841F4804101600068002200F48040E1
:1011100005901146432000F0A7F8432000F098F80E
:1011200007B000BD0000024034380240006805F0FE
:10113000B6BAD0F8940203F01BBC10B5044690F880
:10114000900201280DD0012084F89002206804F05C
:10115000F1FF0121206804F0D7FF002084F89002FD
:1011600010BD022010BD10B5044690F89002012871
:1011700009D0012084F89002206805F0BCFA002014
:1011800084F8900210BD022010BD000002480168E2
:10119000491C0160704700001C0500200B4810B579
:1011A000016841F400710160016841F480610160EF
:1011B000016841F480710160032000F075F800209F
:1011C00000F006F800F018F8002010BD003C0240C6
:1011D00010B5044607484FF47A710068B0FBF1F08F
:1011E00000F01DFD00222146501E00F03DF80020B9
:1011F00010BD00002005002010B5032000F054F8B9
:10120000002211466FF00B0000F02EF8002211466C
:101210006FF00A0000F028F8002211466FF0090074
:1012200000F022F800221146501F00F01DF80022A5
:101230001146101F00F018F800221146901E00F011
:1012400013F80022BDE810401146501E00F00CB803
:1012500000F01F02012191404009800000F1E020D0
:10126000C0F8001170470000F0B40E4B1B680C462C
:10127000C3F30223C3F10705042D00D90425191D6A
:10128000072901D2002300E0DB1E012606FA05F142
:10129000491E214099409E40761E16403143F0BCC5
:1012A00001F057B90CED00E0064900F007020868AC
:1012B0004FF6FF03184040EA0220034A104308603B
:1012C000704700000CED00E00000FA0570470000D8
:1012D0002DE9F0470E46050065D0DFF81481D8F8F7
:1012E0000000F7B200F00F00B04207D288F800709B
:1012F000D8F8000000F00F00B04254D128683D4CEF
:10130000810712D5400703D5206840F4E0502060E3
:101310002878000703D5206840F4604020602068EA
:10132000A96820F0F000084320602878C0072DD07D
:10133000304968680839012812D0022813D00328E0
:1013400011D00968890700292DDA216821F00301ED
:1013500001432160FFF73AFD814641F2883A0EE0F1
:1013600009688903EFE709688901ECE7FFF72EFDBB
:10137000A0EB0901514502D90320BDE8F0872068A0
:10138000696800F00C00B0EB810FEFD1D8F80010C5
:10139000404601F00F01B14207D90770006800F024
:1013A0000F00B04201D00120E7E72878400705D5BB
:1013B0002068E96820F4E05008432060287800079E
:1013C00006D52068296920F4604040EAC100206009
:1013D00000F042F82168084AC1F30311515CC8408B
:1013E000064908600020FFF7F3FE0020C5E7000073
:1013F000003C024008380240AC7D00082005002077
:1014000001490120C8647047000047420148006854
:10141000704700002005002004480549006809685D
:10142000044AC1F38221515CC84070472005002066
:1014300008380240BC7D0008044805490068096876
:10144000044AC1F34231515CC84070472005002076
:1014500008380240BC7D0008154810B5006810F03F
:101460000C02144813D04110042A0FD0082A0ED1C0
:101470000F4C241F2268236802F03F025B0207D54D
:101480002068C0F38810A0FB010106E0084610BDEB
:101490002168C1F38811A1FB00010023FEF790FE33
:1014A0002168C1F30141491C4900B0FBF1F010BDB6
:1014B000083802400024F400054810B50068000612
:1014C00005D5FFF703FF02498020891C087010BD75
:1014D0000C3802402DE9F84F050071D0DFF8D092AA
:1014E0002878A9F1040BC007ABF104044AD0D9F85D
:1014F00000104846C1F38101012908D00068C0F3FB
:10150000810002280AD1DBF80000400206D52068DD
:10151000800337D568680028DFD033E06868B0F50D
:10152000803F10D0B0F5A02F206810D020F480307C
:101530002060206820F4802020606868A8B1FFF750
:1015400045FC06460DE0206840F48030F4E740F4A6
:1015500080202060F7E700BFFFF738FC801B64287D
:1015600073D820688003F7D50CE0FFF72FFC064600
:1015700005E000BFFFF72AFC801B6428F0D8206834
:101580008003F7D428788B4F80074FF0010A4FF083
:1015900000083DD5D9F80010484611F00C0F08D0CE
:1015A0000068C0F3810002280BD1DBF80000400284
:1015B00007D42068800715D5E868012800D111E01C
:1015C000F3E0E868B0B1C7F800A0FFF7FFFB0646FC
:1015D00005E000BFFFF7FAFB801B022835D8206822
:1015E0008007F7D52068296920F0F80040EAC1009B
:1015F00020600DE0C7F80080FFF7E8FB064604E036
:10160000FFF7E4FB801B02281FD820688007F7D46F
:101610002878000724D56848696981B1C0F800A01E
:10162000FFF7D4FB064604E0FFF7D0FB801B02283F
:101630000BD85F486C3000688007F5D510E0C0F823
:101640000080FFF7C3FB064605E074E0FFF7BEFB32
:10165000801B02286FD856486C3000688007F5D48C
:101660002878400753D552483830016841F08051FE
:101670000160006800F0805000905048016841F41B
:1016800080710160FFF7A2FB064604E0FFF79EFBB6
:10169000801B02284FD849480068C005F6D5444E43
:1016A000A868683601280FD00528306810D020F0CF
:1016B00001003060306820F004003060A868B8B1E4
:1016C000FFF784FB00900FE0306840F00100F4E782
:1016D00040F004003060F7E7FFF778FB0099411A0B
:1016E00041F28830814258D830688007F4D50EE046
:1016F000FFF76CFB009007E0FFF768FB0099411AC9
:1017000041F28830814248D830688007F4D4A86913
:1017100090B3D9F80010C1F38101022945D0022805
:10172000C7F8608003D0FFF751FB054638E0FFF7AC
:101730004DFB064605E030E0FFF748FB801B022822
:101740002BD820688001F7D4D5E907010843A96A9E
:101750001B4A490802EB01416A6A41EA82110843C7
:1017600095F82C1040EA0161CBF80010C7F860A092
:10177000FFF72CFB054606E015E000BFFFF726FB50
:10178000401B022809D820688001F7D50BE000BF74
:10179000FFF71CFB401B022802D90320BDE8F88F8D
:1017A00020688001F4D40020F8E70120F6E700006B
:1017B0000838024000004742800E47420070004057
:1017C0000000FFFF70B5040005D00025A56294F865
:1017D000510010B106E0012070BD84F85050204641
:1017E00000F030F8022084F851002068016821F0F0
:1017F00040010160D4E901010843D4E90312114317
:10180000084361690843218B01F400710843E169D1
:101810000843216A0843A16A084321680860A06957
:10182000042101EA1040616A084321684860206889
:10183000C16921F40061C1616565012084F851002E
:10184000002070BD30B51A4D01680020022403232A
:10185000052287B0A94211D116490D6845F480557B
:101860000D600968CDE9020301F480510591F02172
:10187000CDE90014049269460F4815E00F4DA942C6
:1018800014D10C49091F0D6845F480450D600968A5
:10189000CDE9020301F4804105914FF46041CDE9A7
:1018A0000014049269460648FFF7AAF907B030BD54
:1018B000003001404438024000000240003800403F
:1018C000000402402DE9F84F044690F8500000262D
:1018D000994617460D4601280DD04FF0010B84F8AC
:1018E00050B0FFF773FA804694F85100B2460128D1
:1018F00004D0022694E00220BDE8F88F002D7BD0B2
:10190000002F79D0032084F85100C4F854A0256337
:10191000A786E786C4F838A0A4F83CA0A4F83EA0A7
:10192000C4F844A0C4F840A0A068B0F5004F04D1AA
:101930002068016841F4804101602068016849061F
:1019400003D4016841F040010160E068B0F5006F28
:10195000606804D030B3E08E012823D03EE010B19F
:10196000E08E01281AD135F8021B206805E02068B6
:101970008168890706D535F8021BC160E08E401EDC
:10198000E0860BE0B9F1000F34D0B9F1FF3F05D08C
:10199000FFF71CFAA0EB080149452BD2E08E002886
:1019A000E5D11EE0216815F8010B087306E02068F8
:1019B0008168890706D515F8011B0173E08E401E6A
:1019C000E0860BE0B9F1000F14D0B9F1FF3F05D06C
:1019D000FFF7FCF9A0EB080149450BD2E08E002887
:1019E000E5D14B46012202212046CDF8008000F0CF
:1019F000CEFF10B1032613E011E0424649462046CF
:101A000000F0B5FF18B101262020606508E0A0684D
:101A100018B92068C16880680090606D00B1012627
:101A200084F851B084F850A0304665E72DE9F84FAE
:101A3000044690F8500000260A9F9A4693460D46A9
:101A40004FF0010801280ED0012084F85000FFF764
:101A5000BDF9814694F85100616801280CD0B1F5B8
:101A6000827F07D102E00220BDE8F88FA16809B9A2
:101A7000042801D00226BDE055B1BBF1000F07D00C
:101A8000BAF1000F04D094F85100012802D004E00C
:101A90000126AFE0052084F8510000206065C4F8FD
:101AA00038B0A4F83EA0A4F83CA02563A4F836A062
:101AB000A4F834A02064606420680168490603D457
:101AC000016841F040010160E068B0F5006F6068B6
:101AD00004D0E8B3E08E01283BD06AE010B1E08E7C
:101AE00001282ED1216835F8020BC860E08E401E17
:101AF000E08626E0B8F1000F0DD0E08E58B12068E6
:101B00008168890707D535F8021BC160E08E401E49
:101B1000E0864FF00008E08F58B120688168C9075F
:101B200007D0C0682BF8020BE08F401EE0874FF013
:101B30000108781C05D0FFF749F9A0EB0900B8426D
:101B400046D2E08E0028D5D1E08F0028D2D136E0F1
:101B5000FFE7216815F8010B0873E08E401EE08650
:101B600027E000BFB8F1000F0DD0E08E58B120681B
:101B70008168890707D515F8011B0173E08E401EA7
:101B8000E0864FF00008E08F58B120688168C907EF
:101B900007D0C0680BF8010BE08F401EE0874FF0C4
:101BA0000108781C05D0FFF711F9A0EB0900B84235
:101BB0000ED2E08E0028D5D1E08F0028D2D13B464E
:101BC000012202212046CDF8009000F0E0FE08B18D
:101BD00003260FE04A463946204600F0C8FE18B1F9
:101BE00001262020606505E0A06818B92068C1685A
:101BF00080680090012084F85100002084F8500093
:101C0000304631E74FF0E0210428086903D020F086
:101C100004000861704740F00400FAE7704710B50F
:101C2000401EB0F1807F01D3012010BD4FF0E024B1
:101C300060610F21601700F08CFC0020A06107207C
:101C40002061002010BD10B5FFF7E8FF10BD70B592
:101C5000040004D094F83900002510B106E00120FA
:101C600070BD84F83850204600F022F8242084F813
:101C700039002068C16821F40051C160204600F09D
:101C80008DFF2068016921F490410161206841695C
:101C900021F02A0141612068C16841F40051C1600E
:101CA000E563202084F8390084F83A00002070BDF4
:101CB00000B500680E4987B0884217D10D48016809
:101CC00041F4002101600068694600F4002005909D
:101CD0004FF4406000900220019001200290032008
:101CE0000390082004900448FEF78AFF07B000BD67
:101CF000004C004040380240000802402DE9F84303
:101D0000044690F839001F4616460D46202850D14B
:101D1000A5B19EB194F8380001284AD0012084F87A
:101D200038004FF00008C4F83C80212084F83900C6
:101D3000FFF74CF8A6848146E68426E00120BDE842
:101D4000F883E08C401EE084A0684B46B0F5805FCD
:101D50004FF000024FF080012046009703D001F0C1
:101D600073F8E8B90DE001F06FF8C8B92888216868
:101D7000C0F308004860206908B16D1C05E0AD1C87
:101D800003E0216815F8010B4860E08C0028D8D1E9
:101D90004B46002240212046009701F055F808B13B
:101DA0000320CCE7202084F8390084F83880002014
:101DB000C5E70220C3E72DE9F05F064600688846C4
:101DC00000EB4814D4F808054FF0040B410708EB6A
:101DD00088004FF0050A4FF0100706EBC00508D544
:101DE000C4F808B5D4F80C0540F00200C4F80C059E
:101DF00032E0D4F80805800601D520202AE0D4F886
:101E000008054FF00809000710D5D4F80C0540F07C
:101E10000200C4F80C0585F85DA0C4F80875C4F884
:101E200008954146306804F0BCF915E0D4F808057F
:101E3000400511D5D4F80C0540F00200C4F80C059B
:101E40004146306804F0ADF9C4F8087585F85D9036
:101E50004FF48060C4F80805D4F8080580050ED555
:101E6000D4F80C0540F00200C4F80C05414604F516
:101E7000A164306804F095F94FF400708DE0D4F857
:101E800008054FF00001C0074FF0010236D030695D
:101E900030B1A86CD4F81035C3F31203C01AE8644B
:101EA00085F85D20A965C4F8082595F83F0020B1A4
:101EB000022802D003280ED019E0D4F80C0540F017
:101EC0000200C4F80C05414604F5A164306804F032
:101ED00068F927600BE0D4F8000540F00050C4F822
:101EE000000585F85C2041463046FEF7CCFF15F82A
:101EF000500F80F001002870BDE8F09FD4F808056D
:101F0000800733D5D4F80C0520F00200C4F80C0586
:101F100095F85D000223012806D0052807D0062881
:101F200008D0082806D018E085F85C2015E085F870
:101F30005CA012E0A86D421CAA65032803D9A9651C
:101F400085F85CB001E085F85C30D4F8000520F03D
:101F5000804040F00040C4F80005C4F8083595F80A
:101F60005C2041463046FEF78EFFC5E7D4F80805F1
:101F7000000614D5D4F80C0540F00200C4F80C0596
:101F8000A86D4146401CA865062085F85D0004F553
:101F9000A164306804F005F980202060ACE7D4F833
:101FA0000805C006A8D595F83F00032809D1D4F844
:101FB0000C0540F00200C4F80C054146306804F0FE
:101FC000F0F8032085F85D00C4F8087595F83F0027
:101FD00008B1022890D1D4F8000520F0804040F0EC
:101FE0000040C4F8000587E72DE9F047026802EBDE
:101FF0004114D4F808254FF0040C520709D5C4F851
:1020000008C5D4F80C0540F00200C4F80C05BDE882
:10201000F087D4F8082501EB810392064FF0020601
:1020200000EBC30514D52022C4F8082595F83D20FF
:10203000012AECD185F85DC0D4F80C2542F00202EB
:10204000C4F80C25006804F0ACF885F85C60DEE7A5
:10205000D4F808254FF0000352060FD585F85DC06F
:10206000AB65D4F80C2542F00202C4F80C250068D8
:1020700004F5A16404F095F8402010E0D4F8082598
:1020800092050ED5D4F80C2542F00202C4F80C25B6
:10209000006804F5A16404F084F84FF40070206037
:1020A000B5E7D4F808254FF00108D20710D0AB658A
:1020B000D4F80C2542F00202C4F80C25006804F59F
:1020C000A16404F06EF8C4F8008085F85D809EE796
:1020D000D4F808254FF0080912074FF0050A0DD56E
:1020E000C4F80895D4F80C2542F00202C4F80C2577
:1020F000006804F056F885F85DA088E7D4F8082554
:102100004FF01007D20610D5AB65D4F80C2542F07D
:102110000202C4F80C25006804F5A16404F041F83B
:10212000032085F85D00276071E7D4F808251206C2
:102130000FD5D4F80C2542F00202C4F80C25006833
:1021400004F5A16404F02DF8062085F85D008020D8
:10215000A5E7D4F80825520511D5D4F80C2542F08E
:102160000202C4F80C25006804F5A16404F019F813
:1021700027604FF48060206085F85D9047E7D4F8D1
:10218000082592078CD5D4F80C2522F00202C4F859
:102190000C2595F85D20012A0AD0032A26D0042AAE
:1021A00013D0052A16D0062A17D0082A15D01FE00A
:1021B00085F85C8095F83F20022A19D195F85120C6
:1021C00082F0010285F8512012E085F85C6085F804
:1021D0003D300DE085F85CA00AE0AA6D571CAF65A4
:1021E000032A03D9AB6585F85CC001E085F85C6023
:1021F000C4F8086595F85C20FEF745FE07E77CB556
:1022000004680546D4F840040190D4F8400420F056
:102210002E000090019880070DD50198C00706D0C8
:10222000A06920F00051A1612846FEF7D5FD009875
:1022300040F002000090019800072CD5009840F073
:1022400008000090019840071AD5A869022803D019
:10225000E86803280CD00FE00198C0F34140022841
:10226000286803D0012104F0EBF905E00221FAE728
:102270004EF66020C4F804042846FEF7ADFD0AE0DF
:10228000D4F8400420F02E00C4F840042868816986
:1022900041F00051816101988006009802D540F01C
:1022A00020000090C4F840047CBD00002DE9F041FE
:1022B000024600680646016AC1F3434301F00F0776
:1022C000C1F30A14022B25D1002C23D007EB870180
:1022D00002EBC105696C00291CD0224604F0CFF93D
:1022E000686C20446864E86C2044E86406EB47109E
:1022F000D0F81015084A11420CD0D0F8001521F082
:10230000804141F00041C0F8001515F8500F80F0F1
:1023100001002870BDE8F0810000F81FFEE7000012
:102320007FB512481049002401604FF48031C0E9A4
:102330000114046184610E490462C0E90A14012594
:10234000C460C56145610463FEF700FC00B1FEE7AF
:102350000095CDE9015469460448FEF751FB002879
:1023600000D0FEE77FBD000000200140E005002016
:102370000100000F2DE9F041384886B000240168C3
:1023800041F080010160016801F080010591016860
:1023900041F004010160016801F004010591016848
:1023A00041F001010160016801F00101059101683E
:1023B00041F0020101600068294E00F00200059022
:1023C000012240F281113046FEF7FBFC002202217F
:1023D0003046FEF7F6FC234F01224FF401713846D8
:1023E000FEF7EFFCDFF880800022F1144046FEF794
:1023F000E8FC012211034046FEF7E3FC0022311500
:102400003846FEF7DEFC40F2831000900125CDE94E
:102410000154694630460394FEF7F2FB40F2046033
:102420000090CDE90154694638460394FEF7E8FB75
:102430005020CDE90004694630460294FEF7E0FBE7
:102440004FF4C0500090CDE90154694640460394D2
:10245000FEF7D6FB06B0BDE8F08100003038024040
:102460000008024000000240000402400C4810B581
:102470000A4901600021416081600122C160C0E918
:10248000041281610162416281620A21C162FFF727
:1024900099F9002800D0FEE710BD0000003001408F
:1024A000280600200E4810B50C4901604FF48271D7
:1024B0004160002181600122C160C0E90412520222
:1024C000C0E906210162416281620A21C162FFF70F
:1024D00079F9002800D0FEE710BD00000038004068
:1024E0008006002010B501220E490F4802F099F92C
:1024F0000E490D4803F02EFD0D490B4803F02AFD4F
:102500000C49094803F026FD0B49074803F022FD5A
:102510000A49054803F01EFDBDE81040024803F0DB
:1025200060BD0000F95F0008A413002038050020FA
:10253000B8050020980500207805002058050020E7
:10254000014803F053BC0000A4130020FEE7FEF78F
:10255000B3BF0907090E002806DA00F00F0000F1EA
:10256000E02080F8141D704700F1E02080F800148E
:10257000704700000148FEF7E3BC00000C1100208A
:1025800010B5D0F8441541F68A526FF48053C969EA
:10259000525AD2181BD0082A03D00C2A1BD01A2A50
:1025A00014D101F50054D4F8BC0100280ED141F635
:1025B0009053D4F8C4014FF47D72194404F5D874D3
:1025C000FDF72FFE606900F57D70206010BDBDE84D
:1025D000104000F00DB801F50051D1F8BC01002801
:1025E000F4D1D1F8C40100F57D70C1F8B00110BD7F
:1025F000F8B5D0F844050C4641F69051C06945182D
:1026000000F50050D0F8BC0100287DD12878697809
:1026100000EB01202080A878E9786A7900EB01209E
:102620002979090401EB026108446060A879E9791D
:102630006A4600EB0120208105F1080104F10A003F
:1026400000F02FF9BDF80000012101EB4006A819A8
:1026500006F10A02017A407A01EB0020A4F80A018F
:10266000294604F5887000F05FF806EB4002161D5D
:10267000C4F80C010E32294604F5EE7000F054F84F
:1026800006EB4002161DC4F8D8010E32294604F5A7
:102690002A7000F049F806EB4002161DC4F8A402A7
:1026A0000E32294604F55D7000F03EF806EB40025C
:1026B000161DC4F870030E32294604F5886000F038
:1026C00033F806EB4006361DA919C4F83C046A46E7
:1026D00004F5A1600A3100F0E4F8BDF800006A4694
:1026E00006EB4006761CA91904F207600A3100F0D7
:1026F000D8F8BDF800006A4606EB4006761CA9191A
:1027000004F206700A3100E00DE000F0CAF8BDF8EE
:1027100000006A4606EB4000401C291804F605003C
:102720000A3100F0BEF8F8BD70B5044688188D5C1B
:102730004678002305EB06258678C078360406EB3C
:10274000006028440AE000BF02EB43050D442E79E7
:102750006D7906EB052524F813505B1C9842F3D8DD
:1027600070BD0000F0B5054688188C5C46780023E3
:1027700004EB06248678C078360406EB006020441B
:1027800010E000BF02EB83040C442679677906EB66
:102790000726A779E4793F0407EB0464344445F83D
:1027A00023405B1C9842EDD8F0BDF8B5D0F8440545
:1027B00041F690511546C06900234418207861788D
:1027C00000EB01201080A078E17800EB0120508020
:1027D0002079617900EB0120A880E279A179170EB8
:1027E00012028E18227A43EB0700110C1204B21861
:1027F000667A4841310A360692194841A67AD118BC
:102800007041E27AC91840EB0220227BC91840EBE4
:102810000240627BC91840EB0260C5E90210E27B0E
:10282000A67B4FEA12614FEA0222B21843EB010085
:10283000217C0E0C09045218617C70410E0A0906B5
:1028400051187041A27CC9185041E27CC91840EB74
:102850000220227DC91840EB0240627DC91840EB7E
:102860000260C5E90410A07DE17D627E00EB0120DD
:10287000217E4FEA014101EB02610844A8616A46EA
:1028800004F11A0105F11C0000F00BF8BDF800007E
:102890006A4604EB400105F21B101B3100F001F801
:1028A000F8BD10B50B78138011F8012B53000022EE
:1028B00004E08C5C921C00F8014B92B29A42F8D36F
:1028C0000021017010BD012902D0022938D04BE04F
:1028D0009178072948D2DFE801F04704060F2A2142
:1028E0001800026040E0B0F87E1000EB8103491C44
:1028F000A0F87E105A6037E0B0F8801000EB81033A
:10290000491CA0F880105A612EE0B0F8821000EB4C
:102910008103491CA0F882105A6225E0B0F88410A7
:1029200000EB8103491CA0F884105A641CE0B0F845
:10293000861000EB8103491CA0F886105A6313E04F
:102940009178012902D002290ED105E0B0F87C105F
:1029500000EBC100426507E0B0F87C1000EBC1035A
:10296000491CA0F87C109A6500207047704738B564
:102970000B46009204460022802100F008F800284F
:1029800004D0606D40F020006065032038BD2DE963
:10299000F0411D4617460E460446DDF8188035E026
:1029A000681C33D02DB1FEF711FAA0EB0800A84245
:1029B0002CD32068416821F0E00141606068B0F5E7
:1029C000827F0BD1A068B0F5004F02D0B0F5806FC8
:1029D00004D12068016821F040010160A06AB0F5CF
:1029E000005F0AD1206801684DF6FF721140016056
:1029F0002068016841F400510160012084F8510011
:102A0000002084F850000320BDE8F0812068806831
:102A100036EA000004D00020B842C1D10020F3E71C
:102A20000120F9E770477CB5054600240A200E46D0
:102A30008DF8000009E0C0B28DF804006423012283
:102A400001A93046FFF75AF9641C285D0A28F2D123
:102A50006423012269463046FFF750F97CBD00002F
:102A600070B504460A2094FBF0F00D46401C05F0BA
:102A7000E3F80646224606A103F0ACFE294630469E
:102A8000FFF7D1FF3046BDE8704004F03BBF0000C7
:102A900025640A0010B5FEF779FBBDE81040FFF78A
:102AA000D2B8000030B5264893B00025016841F047
:102AB00080510160006800F0805011902148016849
:102AC00041F4804101600068022400F480401190CC
:102AD00001200090000401908001CDE9064008200B
:102AE00008904FF4A870CDE9090407200B906846C0
:102AF000FEF7F0FC00B1FEE70CA90F2081E83100E1
:102B00004FF4A0500F904FF48050109005210CA866
:102B1000FEF7DEFB00B1FEE7FEF772FCFEF776FC87
:102B20004FF47A71B0FBF1F0FFF779F80420FFF76A
:102B300069F800221146501EFEF796FB13B030BD17
:102B400040380240007000401048016841F47001B4
:102B500001600F48016841F0010101600C4A002149
:102B60000832116002680B4B1A400260031D0A4ACA
:102B70001A60026822F48022026005480C3001606D
:102B800002495806803908607047000088ED00E06F
:102B900000380240FFFFF6FE103000242DE9F0411E
:102BA00004460068016921F44052E1681143016163
:102BB0002168C86849F20C6290432369A268E569FC
:102BC0001A4363692B431A430243CA602168486968
:102BD00020F44072A06910434861E1696425B1F5B1
:102BE000004F9748974A21684FF032083FD09142F2
:102BF00001D081427CD1FEF71FFC00EBC00101EB4C
:102C0000001061688900B0FBF1F6FEF715FC00EBDF
:102C1000C00101EB001061688900B0FBF1F0B0FB6E
:102C2000F5F06FF01801484306EB800108EB011046
:102C3000B0FBF5F000F0F006FEF7FEFB00EBC00184
:102C400001EB001061688900B0FBF1F0B0FBF5F01A
:102C500006EB0016FEF7F0FB00EBC00101EB0010E5
:102C600061688900B0FBF1F7FEF7E6FBD2E0914224
:102C700001D081423DD1FEF7DFFB00EBC00101EB4B
:102C8000001061684900B0FBF1F0B0FBF5F00601FF
:102C9000FEF7D2FB00EBC00101EB001061684900B8
:102CA000B0FBF1F7FEF7C8FB00EBC00101EB001031
:102CB00061684900B0FBF1F0B0FBF5F06FF018016E
:102CC000484307EB800108EBC100B0FBF5F000F0D2
:102CD000F80006EB4006FEF7AFFB00EBC00101EB8E
:102CE000001061684900B0FBF1F7FEF7A5FB3CE07E
:102CF00055E0FEF791FB00EBC00101EB00106168AD
:102D00004900B0FBF1F0B0FBF5F00601FEF784FBE3
:102D100000EBC00101EB001061684900B0FBF1F766
:102D2000FEF77AFB00EBC00101EB0010616849007F
:102D3000B0FBF1F0B0FBF5F06FF01801484307EB82
:102D4000800108EBC100B0FBF5F000F0F80006EBE5
:102D50004006FEF761FB00EBC00101EB001061686B
:102D60004900B0FBF1F7FEF757FB00EBC00101EBA8
:102D7000001061684900B0FBF1F0B0FBF5F06FF0B6
:102D80001801484307EB800108EBC100B0FBF5F0E8
:102D900000F00700216830448860BDE8F081FEF74C
:102DA0003BFB00EBC00101EB001061688900B0FB48
:102DB000F1F6FEF731FB00EBC00101EB001061689A
:102DC0008900B0FBF1F0B0FBF5F06FF0180148435B
:102DD00006EB800108EB0110B0FBF5F000F0F00607
:102DE000FEF71AFB00EBC00101EB001061688900DF
:102DF000B0FBF1F0B0FBF5F006EB0016FEF70CFBB4
:102E000000EBC00101EB001061688900B0FBF1F735
:102E1000FEF702FB00EBC00101EB001061688900C6
:102E2000B0FBF1F0B0FBF5F06FF01801484307EB91
:102E3000800108EB0110B0FBF5F000F00F00A9E7EE
:102E400000140140001001402DE9F041984617465A
:102E50000E460446069D1DE0681C1BD02DB1FDF7F3
:102E6000B5FFA0EB0800A84214D92068C16821F47E
:102E7000D071C1602068416921F0010141612020C9
:102E800084F8390084F83A00002084F838000320E0
:102E9000BDE8F0812068006836EA000004D0002018
:102EA000B842D9D00020F3E70120F9E72DE9F00F6F
:102EB0008C460024D0F84415DDE9089A1746C96904
:102EC0002546224626464FF48078BCF1020F06D0F4
:102ED000BCF1030F17D0BCF1060F1BD108E00A6F3D
:102EE0004446D27846EA02250022A1F8902110E05B
:102EF00001EB870249EA0324D2F89020D27846EA0F
:102F00000225524606E0D1F880204446D27846EAAF
:102F100002250122A1230374812343744482858204
:102F2000C282BDE8F00F01F5C87100F0F4BF2DE9D1
:102F3000F00F8C460024D0F84415DDE9089A1746B6
:102F4000C9692546224626464FF48078BCF1020F17
:102F500006D0BCF1030F17D0BCF1060F1BD108E05F
:102F60000A6F4446D27846EA02250022A1F8902151
:102F700010E001EB870249EA0324D2F89020D278CE
:102F800046EA0225524606E0D1F880204446D2782F
:102F900046EA02250122A123037483234374448259
:102FA0008582C282BDE8F00F01F5C87100F0B3BFA1
:102FB0002DE9F00F8C460024D0F84415DDE9089A7D
:102FC0001746C9692546224626464FF48078BCF14B
:102FD000020F06D0BCF1030F17D0BCF1060F1BD1B6
:102FE00008E00A6F4446D27846EA02250022A1F89A
:102FF000902110E001EB870249EA0324D2F89020E7
:10300000D27846EA0225524606E0D1F880204446AE
:10301000D27846EA02250122A12303748223437455
:1030200044828582C282BDE8F00F01F5C87100F0CC
:1030300072BF2DE9F00F8C460024D0F84415DDE96D
:10304000089A1746C9692546224626464FF48078D5
:10305000BCF1020F06D0BCF1030F17D0BCF1060F74
:103060001BD108E00A6F4446D27846EA02250022C6
:10307000A1F8902110E001EB870249EA0324D2F87D
:103080009020D27846EA0225524606E0D1F8802008
:103090004446D27846EA02250122A1230374842300
:1030A000437444828582C282BDE8F00F01F5C87185
:1030B00000F031BF704700002DE9F0410546D0F81F
:1030C000440500210A46C46940F20116B4F8EA003A
:1030D00013E000BF04EB82031B6F1F795B7907EBE2
:1030E0000323B34207D104EB8200006FC178C0799B
:1030F00084F8090103E0521CD2B29042EAD80022BF
:10310000B4F8E8000CE000BF04EBC203D3F8C03011
:10311000DB788B4202D184F8042103E0521CD2B246
:103120009042F1D8284600F069FAC0F30723C2B2F2
:10313000C0F30741032B12D0042B06D0052B07D078
:10314000062B07D184F8072104E084F8052101E06B
:1031500084F806210028E5D10220BDE8F08104EBC7
:10316000820084F80821D0F880000179407901EBD1
:103170000020A0F580710339EED00020EDE70000BB
:103180002DE9F0410546D0F84405002140F2012622
:10319000C4690846B4F8EA2013E000BF04EB8003DA
:1031A0001B6F1F795B7907EB0323B34207D104EB55
:1031B0008000006FC178C07984F8510103E0401CA1
:1031C000C0B28242EAD8284600F018FAC0F30723BA
:1031D000C2B2C0F30741032B12D0042B06D0052B3B
:1031E00007D0062B07D184F84F2104E084F84D2145
:1031F00001E084F84E210028E5D10020BDE8F081EF
:1032000084F85021F9E72DE9FC41D0F84435012537
:10321000DC6902236678361F052E5DD2DFE806F0F2
:10322000172B03475B00CDE900230A460223062142
:10323000FFF73CFE01284FD00420607094F8900105
:1032400094F8911100EB0120C4F8340144E0CDE979
:1032500000230A4602230621FFF7AAFE01283BD0DD
:103260000520607094F8900194F8911100EB012012
:10327000C4F82C0130E0CDE900230A4602230621E0
:10328000FFF755FE012827D00720607094F89001C1
:1032900094F8911100EB0120C4F83001D4F82C11FE
:1032A000884219D24FF47F40C4F8300114E0CDE9D0
:1032B00000230A4602230621FFF7BBFE01280BD09C
:1032C0000820607094F8900194F8911100EB0120AF
:1032D000C4F8380100E000252846BDE8FC812DE94E
:1032E000F041D0F8441501270626CC692178082939
:1032F00066D2DFE801F065045E040D43502694F8C1
:1033000042110425012952D194F8401100224BE0CA
:1033100094F8FA100725012902D0257066704FE055
:1033200094F8F810002202F04EFE30BB2570667053
:1033300094F8070184F8A00194F8090184F8A10128
:103340003EE0254694F8A12194F8A011FFF75BFF19
:10335000012835D095F8A101012804D0401E85F838
:10336000A1016E702CE095F8070185F8A0010020FE
:1033700085F8A1016E700520207021E094F84211BB
:10338000012906D194F8412194F8401102F01BFE66
:10339000B0B9267014E094F8FA100225012906D17C
:1033A00094F8F92094F8F81002F00DFE40B9257059
:1033B00006E00121A170D0F8942502219047002752
:1033C0003846BDE8F0812DE9F0410546D0F84405C6
:1033D0000126C469E078012807D0022821D00127FE
:1033E000042848D005284FD147E0D5F88805C00704
:1033F0004AD1D5F88805C4F88C0194F88A3194F83C
:10340000862104F5C871284601F023FA94F80701D3
:1034100084F8A00194F8090184F8A1010220E07069
:1034200032E094F88A11284601F09EFA01280BD167
:1034300094F8900194F8911100EB0120C1B2284654
:1034400000F0F7FA01281FD0D5F88805D4F88C11C0
:10345000401A94F88B11884216D3D5F88805C4F821
:103460008C0194F88A3194F8862104F5C8712846B5
:1034700001F0EFF908E0012100E00221284600F008
:10348000D8FA08B9E77000263046BDE8F081F0B5FB
:1034900004460220D4F8441500231A46CD6902EBF5
:1034A000C20101EB021104EB410191F84163012ECD
:1034B0001FD191F84263022E1BD191F84863370661
:1034C00017D5B1F84A73A7B103EB830705EB47079C
:1034D000BE71B1F84A633E8191F83E63FE7291F885
:1034E0003F63BE7291F84C13F98101215B1C397363
:1034F000DBB2521CD2B20A2AD1D3002B00D000205A
:10350000F0BDF0B504460220D4F8441500231A4655
:10351000CD6902EBC20101EB021104EB410191F80C
:103520004163012E20D191F84263022E1CD191F803
:103530004863370618D4B1F84A73AFB103EB830779
:1035400005EB470707F8386FB1F84A637E8091F8BA
:103550003E637E7191F83F633E7191F84C1339815F
:1035600001215B1CB971DBB2521CD2B20A2AD0D342
:10357000002B00D00020F0BD70B50546D0F8440502
:1035800001220226C469FF231146284600F003FDEC
:10359000FF2831D05FF0000101EBC10000EB01100A
:1035A00005EB400090F84123032A21D1B0F84A23CB
:1035B000F2B190F8482312061AD501EBC10202EBD2
:1035C000011105EB410191F8481384F88411B0F81A
:1035D0004A13A4F8861190F83E1384F8881190F8E5
:1035E0004C0384F88B01012084F88901002603E054
:1035F000491CC9B20A29CFD3304670BD30B5D0F8C6
:1036000044050022C069B0F8EE3012E000EB8204FD
:10361000D4F8904024798C4209D100EB8200D0F894
:103620009000C07842EA004040F4C06030BD521CB7
:10363000D2B29342EAD80022B0F8F23016E000BFCE
:1036400000EB8204D4F8A04065798D4202D0A479C1
:103650008C4209D100EB8200D0F8A000C07842EA89
:10366000004040F4806030BD521CD2B29342E7D893
:103670000022B0F8F03012E000EB8204D4F8B04041
:1036800064798C4209D100EB8200D0F8B000C07898
:1036900042EA004040F4A06030BD521CD2B29342D6
:1036A000EAD80022B0F8EC3013E000BF00EB82044F
:1036B000D4F88040E4798C4209D100EB8200D0F844
:1036C0008000C07842EA004040F4407030BD521C97
:1036D000D2B29342EAD84FF0FF3030BD704770B598
:1036E0000546D0F844050026C46994F8431149B151
:1036F000284600F0EDFB94F84311284600F086FCC4
:1037000084F8436194F8FB1049B1284600F0E0FBCF
:1037100094F8FB10284600F079FC84F8FB6094F8DC
:103720008A1149B1284600F0D3FB94F88A11284643
:1037300000F06CFC84F88A61D5F84405C06920B1BA
:1037400004F0E0F8D5F84405C661002070BD2DE90D
:10375000FE434FF000080122054602264746434635
:10376000114600F018FCFF287DD04FF4D27948466E
:1037700004F062FAD5F844150446C8614946FCF7DE
:1037800069FD2846FFF783FE81462846FFF7B9FE0C
:10379000B9F1020F01D1022865D00021012601EB09
:1037A000810004EB400090F83E20012A18D1428F9E
:1037B000424515D9904690F83D2084F8F82090F8BD
:1037C0003C2084F8F92090F8382084F8F420428FC7
:1037D000A4F8F62090F8402084F8FC2084F8FA60E1
:1037E000027B012A15D10289BA4212D91746C27A40
:1037F00084F84021827A84F84121827984F83C213E
:103800000289A4F83E2190F8400084F8440184F82D
:103810004261491CC9B20529C1D32846FFF7ACFE55
:1038200008B984F88961284600F0AEF894F8FA00E7
:1038300001281DD12846FFF73FFC14F8F41F284645
:1038400000F0CCF9E0710146608895F81D230092E4
:10385000CDE9016095F81C332278284601F0C4FFB9
:10386000E179002200E049E02846F43C01F0ECF860
:1038700094F8420101281ED12846FFF781FC94F8F4
:103880003C11284604F59E7400F0A8F9E071014649
:10389000628895F81D03CDE90006029295F81C3365
:1038A0002278284601F0A0FFE17900222846A4F5FD
:1038B0009E7401F0C9F894F8890101281BD194F88D
:1038C0008411284604F5C27400F088F9A0710146FD
:1038D00095F81D03638803228DE80D0095F81C33CD
:1038E0002278284601F080FFA17900222846A4F51D
:1038F000C27401F0A9F82670E67000263046BDE8D3
:10390000FE832DE9F0410646D0F844050125052740
:10391000C469A078062830D2DFE800F02F03201019
:10392000322E94F8040104EBC000D0F8C400C07932
:1039300010B10220A07020E00320FBE794F80401FE
:1039400094F8F41004EBC000D0F8C42030460832DC
:1039500000F0CDF8050010D1A7700EE004F58672D6
:1039600094F8F410304600F0C2F8050005D1A770B5
:103970003046FFF7B3FE00E000252846BDE8F081A1
:10398000304600F0C4F8F7E72DE9F8430546D0F8D3
:1039900044054FF000084746C6690920ADF800000D
:1039A000A6F8EE80A6F8EA80A6F8EC8005F11C04E3
:1039B000A6F8E88025E06946204600F04DFB044665
:1039C0004078042802D024281BD109E094F9027021
:1039D000E278F9B2284600F000FB4FFA80F810E0D8
:1039E00095F83603B8420CDB08EBC80101EB081070
:1039F00005EB4000224690F8421306F16C00FEF7FA
:103A000062FFB5F83413BDF800008142D3D800201E
:103A1000BDE8F88370B5D0F844150125CC6994F859
:103A2000FA10012901D1FFF76CFF284670BD002074
:103A300070472DE9F041D0F8442501250129D469CA
:103A400002D0022909D103E0D4E94D12114402E069
:103A5000D4E94D12891AC4F83411D4E94C128A42BF
:103A600001D9C4F83411D4F83421D4F82C118A4285
:103A700001D2C4F83411D0F8442594F8A06194F828
:103A8000A131D269B4F8341143F40073A2F8901153
:103A9000D0F844150222C96901EB860601F5C87108
:103AA000D6F89060F778002646EA072621270774A3
:103AB0000127477443828682C28200F02CFA0128D3
:103AC00008D094F8A101012807D0401E84F8A10174
:103AD000062060702846BDE8F08194F8070184F85C
:103AE000A00194F8090184F8A1010025F0E730B4A1
:103AF000134622250322057401254FF48074457472
:103B000044828182C28230BC194600F004BA70B58A
:103B10000546D0F844050126C4692079012802D061
:103B2000022859D119E0D5F88805C00754D1D5F835
:103B30008805C4F800010220207194F8FB30B4F825
:103B40002021D4F810112846E43400F092FEA08F12
:103B50006063A063E06A20633EE094F8FB102846AF
:103B600000F002FF012837D1D5F88805D4F80011FC
:103B7000401A94F8FC1088422ED3D5F88805C4F872
:103B8000000194F88901012802D12846FFF71BFCA7
:103B9000D4F82411D4F81C01884214D894F8FB30CE
:103BA000B4F82021D4F814112846FC3400F061FE4A
:103BB000A08CA1690144A161E1690144E161216A2C
:103BC0000844206208E04FF0FF30C4F818010520D7
:103BD000A0702846FFF76EFA304670BD10B500227F
:103BE0004FF6FF7300EB8204B4F84C45240409D46B
:103BF0009A4205D000EB820041F40041C0F84C1518
:103C0000D0B210BD521CD2B20B2AEBD31A46F7E742
:103C10007FB51C46012501AE0023009586E80E0005
:103C200002232A46214600F03FFF04B0002070BD69
:103C30007FB51D4690F81D33089C03B10024012375
:103C4000CDE90031CDE9022402230022294600F00B
:103C50002BFF04B0002070BD70B50446D0F84405B9
:103C6000C16920464031FCF7C0FE050004D1D4F8FC
:103C70009425022120469047284670BD70B5054620
:103C8000D0F844050026C469217839B1284600F0EF
:103C90001FF92178284600F0B9F92670217B39B147
:103CA000284600F015F9217B284600F0AFF926736D
:103CB000617B39B1284600F00BF9617B284600F0A2
:103CC000A5F96673D5F84405C06920B103F01AFE62
:103CD000D5F84405C661002070BDFEB50227054633
:103CE00001233A46394600F056F90646FF287ED0B1
:103CF0000146284602F040F9502003F09DFFD5F818
:103D000044150446C86106EBC60000EB061005EB3F
:103D1000400090F848130A0603D56170B0F84A03D2
:103D2000608161782846FFF759FF2070014695F8B9
:103D30001D03638903228DE80D0095F81C3362781A
:103D4000284601F051FD21780022284600F07CFE33
:103D500000231A460A21284600F01DF9FF2854D0F6
:103D600000EBC00101EB001005EB400090F8481398
:103D70000A0604D5E173B0F84A13618303E0A17326
:103D8000B0F84A13218390F850130A0604D5E17362
:103D9000B0F85203608303E0A173B0F852032083AC
:103DA000A17B2846FFF71AFF6073E17B2846FFF7E7
:103DB00015FF2073208B95F81D1302260091CDE985
:103DC000016095F81C33A27B617B284601F00CFD55
:103DD000608B95F81D130091CDE9016095F81C33B7
:103DE000E27B217B284601F0FFFC002000E00CE094
:103DF00084F84C000246617B284600F025FE217BBA
:103E00000022284600F020FE00273846FEBD7047FD
:103E10002DE9F0410546D0F8440501270026C46984
:103E20004FF0040894F84C0005284AD2DFE800F06F
:103E30000305163B4200002743E02122A16C2A74AF
:103E400020226A746E82AE8207222846EA8200F03F
:103E500062F848B9022084F84C0032E004F14001D5
:103E60002846FCF7C2FD20B101282AD084F84C80F6
:103E700027E084F84C60A06C94F8441002799142D9
:103E80001FD194F84610827991421AD194F84510C6
:103E90004279914215D1216C0068814211D12846A6
:103EA000FFF7B5FF0DE02846FCF741FD2846FCF77B
:103EB0000AFD06E00021284600F00FF808B984F852
:103EC0004C603846BDE8F08170470020704770476D
:103ED00010B500F0DFFC002010BD8278012A07D168
:103EE0000222027401224274002242828182C28232
:103EF0000022114600F00FB87FB51C46012501AE27
:103F00000023009586E80E002A46214600F0CCFDED
:103F100004B0002070BD70B504460120A3780546AA
:103F2000012B09D0022B06D1204600F042FB48B1FC
:103F3000022800D1A57070BDA160A2812576022162
:103F4000A17070BDA5700021217670BD7FB51D46A2
:103F500090F81D33089C03B100240123CDE9003102
:103F6000CDE9022400231A46294600F09DFD04B045
:103F7000002070BD1FB500231446CDE90031082292
:103F8000CDE902231A46214600F08EFD04B0002040
:103F900010BDFCF727BE70B5002400F2323004EBF0
:103FA000C40505EB041500EB4505EE7B0A358E4292
:103FB00001D0FF2909D1AE79964201D0FF2A04D160
:103FC000ED799D4207D0FF2B05D0641C64B20A2C0A
:103FD000E5DBFF2070BDE0B270BD30B5002300F21C
:103FE000323003EBC30404EB031400EB4404257BE1
:103FF0000A348D4204D1E478944201D1D8B230BD64
:104000005B1C5BB20A2BECDBFF2030BD0B2907D217
:1040100000EB8100B0F84C15C1F30E01C0F84C154F
:104020000020704730B48578029C012D0FD141F0FB
:10403000800101740621417403214282B1EB122FE9
:1040400002D140F2094100E000218182C48222466F
:1040500030BC1946FFF75FBF0A8803781A440A800C
:10406000017808447047F8B50E4600F11C05009130
:1040700004462B464FF400720021FFF7D3FF0700E0
:1040800005D13246294604F2323001F03BFE384673
:10409000F8BD38B50D460091044600F58E734FF417
:1040A00080720021FFF7BEFF01003DD104F548708A
:1040B00094F81C21027094F81D21427094F81E217E
:1040C00094F81F31082D02EB0322428094F820213E
:1040D000027194F82121427194F82221827194F89E
:1040E0002321C27120D994F8242194F8253102EBC0
:1040F0000322028194F8262194F8273102EB03224F
:10410000428194F8282194F8293102EB032282811C
:1041100094F82A21827394F82B21C27394F82C21ED
:10412000027494F82D214274084638BDF8B51C4637
:104130001646009341F4407200F58E731D4600212F
:10414000FFF770FF002814D16978032911D129786D
:104150008A1EA24200DC14460021A2B2AD1C04E07B
:104160006B5C891C06F8013B89B29142F8D30021AF
:104170003170F8BD70B50446D0F844050126C56914
:10418000687906284AD2DFE800F003492903313C68
:104190000921204600F045F838BB05F1260094F8C7
:1041A0001C11017094F81D11417094F81E1194F8BF
:1041B0001F2101EB0221298594F82011017194F847
:1041C0002111417194F82211817194F8231194F80E
:1041D000242101EB02210181022005E0E98D204626
:1041E00000F029F808B90420687117E00022114690
:1041F000204600F0C2F9052108B103280ED16971EB
:104200000CE00021204600F0C5F938B901206871A2
:10421000D4F894250221204690470026304670BDF0
:10422000704708B500F58E7300914FF404520121D8
:10423000FFF7F8FE08BD08B500F58E7300914FF446
:1042400008520121FFF7EEFE08BD30B4A125029C03
:104250000574012542EA01214574418200218182D1
:10426000C482224630BC1946FFF755BE70B50546DC
:10427000D0F844050026C469617839B12846FFF7B3
:1042800027FE61782846FFF7C1FE6670217839B1B4
:104290002846FFF71DFE21782846FFF7B7FE267057
:1042A000D5F84405C06908B103F02CFB002070BDAF
:1042B0002DE9FE430546D0F8440500260224017985
:1042C000FF2301222846FFF766FE0146FF2879D02A
:1042D000284601F051FE342003F0AEFCD5F8441519
:1042E0000446C8610721817095F81F0300EBC001E7
:1042F00001EB001005EB400090F84303012804D0C7
:10430000022804D00220BDE8FE833E4800E03E487B
:1043100020630020A070607195F81F0300EBC001BE
:1043200001EB001005EB400090F84803A07695F8EB
:104330001F0300EBC00101EB001005EB4000B0F8DB
:104340004A03208395F81F0300EBC00101EB001026
:1043500005EB400090F84C03A0830A2801D20A2004
:10436000A08395F81F0300EBC00101EB001005EBE3
:10437000400090F84073052F3ED9052795F81F039C
:104380004FF0030800EBC00101EB001005EB40000B
:1043900000EBC60090F84813080614D52171284692
:1043A000FFF71CFC60700146208B95F81D33CDE9AA
:1043B0000038029095F81C332279284601F014FA4F
:1043C000617813E01BE0E1702846FFF707FC2070DE
:1043D000228B95F81D33CDE900380292014695F8FD
:1043E0001C33E278284601F0FFF9217800222846A4
:1043F00000F02AFB761CF6B2BE42BFD30024204652
:1044000081E700000D4400086144000810B5014632
:10441000D0F844050022114CC3690F4882704270E5
:104420000271C270827142710272C271104600BF85
:1044300044F82020401C0228FAD3188B022801D906
:1044400002201883502203F1080001F58E715C618F
:1044500003F0CEF9002010BD3C19002024050020F7
:1044600010B50146D0F844050B4B0022C0691A7004
:104470005A709A70DA701A711B1F1A60028B042A24
:1044800001D90422028343612822083001F58E718C
:1044900003F0AEF9002010BD30050020F8B5054648
:1044A000D0F8440500270426C469A078072851D213
:1044B000DFE800F0040750501E192D00216B28463C
:1044C0008847207E00900022012128466369FFF77B
:1044D000BCFE40BB228B04F10800616903F08FF938
:1044E0000520A07036E0D5F88805C00731D131E04D
:1044F0006378227E2846616900F0ABF90620A0703F
:10450000D5F888052062002084F8240022E0617834
:10451000284600F029FA012806D06178284600F0E4
:1045200023FA052810D015E094F8240090B9228BC6
:1045300004F10800616903F062F9012084F82400A5
:104540002846FFF76DFE05E0A17E2846FFF7C5FC73
:1045500000B9A6703846F8BDD0F84415C9698A7804
:10456000062A08D1D0F888050A6A801A8A8B9042F8
:1045700001D30420887000207047212303740A238C
:10458000437442EA0121418200218182C1820A46AC
:10459000FFF7C1BC212202740B22427439B1002101
:1045A000418200218182C1820A46FFF7B4BC012109
:1045B000F6E72DE9F84F04460125007E0B262F462D
:1045C0004FF009084FF007094FF0050B4FF00D0AA7
:1045D0000C281ED2DFE800F0A9060E212C38445C1E
:1045E00067788495627904F110012046FFF7C2FCD8
:1045F00002200DE06179204600F0B6F9012877D15C
:10460000207CE18A00F0800021B180283BD103208A
:1046100020768AE0802814D02FE0D4F88805E08145
:104620002379A2892046A168FFF766FC0420EFE702
:104630002179204600F098F9012802D0052841D0C0
:1046400056E084F8188070E000976379A2892046CC
:10465000A168FFF77BFCD4F88805E0810620D7E746
:104660006179204600F080F9012806D0052807D09E
:10467000022808D0042809D057E084F8189054E0A4
:104680000C2020761EE084F818B04EE026764BE031
:104690000022237911462046FFF72EFCD4F8880526
:1046A000E0810820B4E72179204600F05DF9012877
:1046B00004D0042823D0052804D036E084F818A0BC
:1046C000002532E0032530E000970022637911468F
:1046D0002046FFF73BFCD4F88805E0810A2097E7E5
:1046E0006179204600F040F9012804D00228A8D0C2
:1046F000042804D019E0002584F818A015E02676D7
:1047000013E0607E401CC0B26076022805D82046C7
:1047100000F0BAF92776A77007E0D4F894250621AF
:10472000204690470020607602252846BDE8F88F95
:10473000FEB50446012640780025374604F58E7202
:1047400008286CD2DFE800F004161D434A53576274
:1047500008212046FFF79DFC002860D194F827032C
:10476000A071677094F81D130091CDE9015094F881
:104770001C3319E012212046FFF78BFC30BB0220CE
:1047800033E00121204601F002FCF8B90220FFF7D6
:1047900000FC84F81C7303206070A07994F81D134A
:1047A000CDE900153B46029021798022204601F098
:1047B0001BF8A07994F81D130091CDE9015094F8ED
:1047C0001C3361790022204601F00EF827E0092110
:1047D0002046FFF748FC10BB042006E0B4F8341371
:1047E0002046FFF740FCD0B90520607017E094F830
:1047F0002E13062502E094F82F13072521B1FF237D
:104800002046FFF793FC50B9657008E094F8301328
:1048100021B1FF232046FFF789FC00B9002630466E
:10482000FEBD70B50D46040011D084F88C25002023
:10483000C4F84405C4F848052046FCF7B1F80DB1AA
:10484000C4F89455204600F0A3F8002070BD022063
:1048500070BD7FB51C46012501AE0023009586E89A
:104860000E0003232A46214600F01EF904B0002062
:1048700070BD7FB51C46012501AE002392B20095A4
:1048800086E80E002B460022214600F00DF904B008
:10489000002070BD10B50024D0F89005FCF7B7FAE1
:1048A00030B1012801D0022801D0022400E0012407
:1048B000204610BD10B5017819B10178012909D041
:1048C0000AE0012180F81E13D0F8942522B10421BA
:1048D000904701E002210170002010BD10B5044690
:1048E00000F0D2F821792046FFF790FB617920464D
:1048F000FFF78CFB002084F81E03D4F8942512B136
:10490000052120469047204600F0AEF80320207095
:10491000002010BD10B5C820FCF764F9002010BDC0
:10492000D0F89005FCF76DBA10B50124D0F89005C9
:10493000FCF75DFA20B1012805D0022803D101E07F
:10494000002400E00224204610BDD0F8900501EBC1
:10495000810100EBC10090F83B1011B190F85000BC
:10496000704790F851007047D0F89005FCF742BAB4
:10497000D0F88815491CC0F8881501780A2905D196
:10498000D0F84415002901D0896908477047000014
:1049900010B5044690F88C0501281ED110484FF040
:1049A000A0410022C0F89442C4F89005016008219B
:1049B00081600321C0E903120221C0E90612FCF75D
:1049C00056FB18B1B82107A001F003FF0448FCF71B
:1049D0000BFA0146204600F034F8002010BD00001C
:1049E0000C1100202E2E2F5372632F757362685F97
:1049F000636F6E662E630000FEB508AC94E8E000BD
:104A00008DE8E0000024D0F89005FCF712FA30B1F0
:104A1000012801D0022801D0022400E00124204610
:104A2000FEBD10B50024D0F89005FCF77FFB30B137
:104A3000012801D0022801D0022400E001242046F0
:104A400010BDC0F888157047D0F8900501EB8101C2
:104A500000EBC10090F83B1011B180F8502001E04C
:104A600080F851200020704710B50024D0F8900540
:104A7000FCF763FB30B1012801D0022801D00224E9
:104A800000E00124204610BD10B50024D0F89005A8
:104A9000FCF769FB30B1012801D0022801D00224C3
:104AA00000E00124204610BD2DE9FF410AAC94E846
:104AB000E0108DE8E0100024D0F89005FCF7E4F950
:104AC00030B1012801D0022801D0022400E00124E5
:104AD00004B02046BDE8F08103460220D3F8441517
:104AE000C9692AB1012A05D189791846FFF7F5B9B4
:104AF000C979FAE770470000D0F844050549C06954
:104B0000416505498165012100F8501F8170002031
:104B10007047000055534243504030202DE9F84F74
:104B20000746D0F8440501263546C4694FF00B0A04
:104B30004FF00A0B94F850004FF009094FF00708A6
:104B40000C2845D2DFE800F0D20611252E48527518
:104B50007EA7AFCB84F86110022084F85000009546
:104B600063791F2204F1540159E061793846FFF757
:104B7000FBFE012802D002287ED03FE0E06D002835
:104B800029D094F86000000601D503204BE00520F1
:104B900049E0237962893846D4F88C10FFF738F859
:104BA000042040E021793846FFF7DEFE01284FD18E
:104BB0006289E06D90420CD9D4F88C10801A1144AF
:104BC000C4F88C10E0656BD023793846FFF720F8E5
:104BD0008CE00020E06563E0009563792289384627
:104BE000D4F88C10FFF724F806201CE061793846D1
:104BF000FFF7BAFE012804D00228C8D0052815D036
:104C000074E02289E06D9042E3D9D4F88C10801AC8
:104C10001144C4F88C10E06542D0009563793846A1
:104C2000FFF706F862E084F850005FE084F850B0C7
:104C30005CE023790D2204F178013846FEF7E8FFA5
:104C40000820F0E721793846FFF78EFE012802D0D0
:104C500005281DD04AE004F8505F3846A570D7F803
:104C60004415CC692179FFF75BFE0D280CD1214951
:104C7000A06F884208D100E036E0A16DE06F884265
:104C800002D194F8840008B102262FE000262DE01E
:104C900084F850902AE000223846FFF71DFF38B90B
:104CA00084F8508022E001223846FFF715FF10B14A
:104CB000042811D01AE061793846FFF746FEC0F1AA
:104CC0000100C2B261793846FFF7BEFE21790022A9
:104CD0003846FFF7B9FEDBE784F850A006E0384617
:104CE00000F015F8060001D184F850503046BDE8B8
:104CF000F88F000055534253A1220274FE224274E1
:104D00000022428282820122C282FFF704B921215D
:104D10000174FF214174002141828182C1820A46CF
:104D2000FFF7F9B870B5D0F844150125CC69A17B1F
:104D300021B1022902D0032928D121E02146FFF721
:104D4000DBFF00210546032801D015B11EE0002538
:104D500021602078401C2060002002230CE000BF6E
:104D600000EB800202EBC00204EB8202401C82F8DE
:104D7000923082F8C110C0B222688242F0D805E0B9
:104D80000021FFF7AAF808B9E07BA073284670BDA0
:104D900070B50546D0F844050026C469617939B17B
:104DA0002846FFF795F861792846FFF72FF96671D5
:104DB000217939B12846FFF78BF821792846FFF78A
:104DC00025F92671D5F84405C06920B102F09AFD95
:104DD000D5F84405C661002070BDFEB50546D0F883
:104DE000440502245023017906222846FFF7D3F810
:104DF0000146FF287DD0284601F0BEF8E00102F010
:104E00001BFFD5F844150446C86195F81F0300EB55
:104E1000C00101EB001005EB400090F848030106CB
:104E20000CD5E07195F81F0300EBC00101EB0010F9
:104E300005EB4000B0F84A0360810BE0A07195F8E3
:104E40001F0300EBC00101EB001005EB4000B0F8C0
:104E50004A03208195F81F0300EBC00101EB00100D
:104E600005EB400090F8500301060CD5E07195F871
:104E70001F0300EBC00101EB001005EB4000B0F890
:104E8000520360810BE0A07195F81F0300EBC00195
:104E900001EB001005EB4000B0F852032081002028
:104EA000A4F8F800A4F8FA0020736073A073A17945
:104EB0002846FEF793FE6071E1792846FEF78EFEE4
:104EC00020712846FFF718FE682104F19000FBF7D7
:104ED000C1F9208995F81D1302260091CDE90160E2
:104EE00095F81C33A2796179284600F07DFC608931
:104EF00000E016E095F81D130091CDE9016095F8EA
:104F00001C33E2792179284600F06EFC21790022D9
:104F10002846FFF799FD617900222846FFF794FDA6
:104F200000242046FEBD2DE9F0470746D0F8440591
:104F30004FF0010AC469207B10B101287DD135E111
:104F4000B4F8F800216801254FF00008884275D2B6
:104F500000EB800101EBC00004EB8000022680F82A
:104F60009150B4F8F8004FF0050900EB800101EB17
:104F7000C00104EB810292F8901009295DD2DFE8AC
:104F800001F0055C26910CBA5C5CF200042082F80A
:104F90009000D7F88805C4F8FC00B4F8F80000EBDE
:104FA000800101EBC00104EB8102C1B238469F329F
:104FB00000F001F940B9B4F8F80000EB800101EB12
:104FC000C00004EB8000B8E002287DD09BE0C1B2B5
:104FD000384600F0D6F910B1022833D093E0B4F887
:104FE000F80000EB800101EBC00004EB800090F8BA
:104FF000921011B180F8C15001E080F8C180B4F87E
:10500000F820032002EB820101EBC20104EB8101D5
:1050100081F89000B4F8F81001EB810202EBC101B5
:1050200004EB810181F89180B4F8F81001EB810262
:1050300002EBC10104EB810101E0B9E0ADE081F8D0
:105040009280B5E0B4F8F80000EB800101EBC000FD
:1050500004EB800090F89210022902D080F8C15031
:1050600001E080F8C180B4F8F81001EB810202EB96
:10507000C10104EB810181F89090B4F8F80000EBD5
:10508000800101EBC00004EB800080F89150B4F87F
:10509000F80000EB800101EBC00004EB800080F819
:1050A000926085E0C1B23846943200F0E4F80028FE
:1050B0008AD1B4F8F80000EB800101EBC00004EBEA
:1050C000800080F8905000E00AE0B4F8F81001EB9E
:1050D000810202EBC10104EB810181F8918031E092
:1050E000B4F8F81001EB810202EBC10104EB81017D
:1050F00081F890905CE0C1B238469C3200F0F8F83C
:1051000020B1022823D004282ED051E0B4F8F800B2
:1051100000EB800101EBC00004EB800090F89C10D4
:10512000062901D002290BD1D7F88815D4F8FC2024
:10513000891A42F21072914202D280F8906037E0F0
:1051400080F8905034F8F80F401C208030E0B4F81C
:10515000F810082001EB810202EBC10104EB810190
:1051600081F8900024E014E0B4F8F80000EB80012E
:1051700001EBC00004EB800080F89050B4F8F80018
:1051800000EB800101EBC00004EB800080F891602F
:105190000EE0401CA4F8F8000AE0A4F8F88025739B
:1051A000D7F8942502213846904701E04FF0000AD5
:1051B0005046BDE8F08770B51546D0F84425022664
:1051C000D46994F85220012A02D0022A51D128E051
:1051D00024228020E26584F860000A2084F86200BE
:1051E0000020C4F86300C4F86700A4F86B00122321
:1051F00084F86330490184F8641084F8650084F809
:10520000660084F8672084F86800012084F8500064
:10521000022084F8520004F110000126C4F88C002A
:1052200027E0FFF77BFC060023D122212846FBF76D
:1052300011F854F88C0F1022007800F01F006870ED
:10524000206800784009287020684078C009A8705C
:1052500020688168C5F80310C068C5F80700216898
:1052600005F10C001031FAF7DCFF2068006AC5F880
:105270001D00304670BD70B51646D0F84425012596
:10528000D46994F85220012A02D0022A2ED11AE0C1
:105290000820E065802084F860000A2084F862001D
:1052A000102104F16300FAF7D5FF252084F863008C
:1052B000012084F85000022084F8520004F110000C
:1052C000C4F88C0012E0FFF729FC05000ED154F859
:1052D0008C0F4188427849BA007862F31F4141EA55
:1052E000006030602068C08840BAB080284670BD39
:1052F00070B5154602460E46D2F844150220CC6918
:1053000094F85210012914D0022911D131461046C7
:10531000FFF704FC00280BD154F88C1F897801F0AA
:105320000F0129702168097B69702168497BA97088
:1053300070BD0E258020E56584F860000A2084F8A1
:105340006200102104F16300FAF784FF032084F85F
:105350006300700184F86400002084F8650084F81C
:10536000660084F8675084F86800012084F85000D3
:10537000022084F8520004F11000C4F88C000120CF
:1053800070BD70B502460220D2F84435DC6994F84D
:105390005230012B06D0022B18D1BDE870401046C8
:1053A000FFF7BCBB0025E56584F860500A2084F84F
:1053B0006200102104F16300FAF74CFF84F8635097
:1053C000012004F8500F0220A070012070BD0020C1
:1053D0007047002070472DE9F0410546D0F844059C
:1053E0004FF0010841F64857C66906F5805494F815
:1053F0003C0D10B101283DD114E0D5F88805C00757
:1054000038D1D5F88805C4F8400D94F82E3D94F8AD
:10541000362DF119284604F62E54FFF71AFA01200A
:10542000A07327E094F82E1D2846FFF79DFA012867
:105430000BD1D5F844152846CA6902F58052B2F856
:105440004E1DD2F8542D00F018F8D5F88805D4F880
:10545000401D401AB4F8441D88420BD3D5F8880586
:10546000C4F8400D94F82E3D94F8362DF1192846D5
:10547000FFF7EFF94046BDE8F081704770B505468B
:10548000D0F844050026C46904F5805494F82D1D15
:1054900049B12846FEF71CFD94F82D1D2846FEF75D
:1054A000B5FD84F82D6D94F82C1D49B12846FEF702
:1054B0000FFD94F82C1D2846FEF7A8FD84F82C6DEE
:1054C00094F82E1D49B12846FEF702FD94F82E1DD2
:1054D0002846FEF79BFD84F82E6DD5F84405C0697B
:1054E00020B102F00FFAD5F84405C661002070BD66
:1054F0002DE9FE4F012305461A460621FEF74BFD16
:105500008046FF2811D00146284600F035FD0020D6
:105510004FF0FF0900EBC00101EB001205EB420266
:1055200092F84113062903D016E00220BDE8FE8F51
:105530005FF0000702EBC70191F848331B0607D55F
:10554000B1F84A3323B191F84913C943890708D008
:105550007F1CFFB2052FEDD3401CC0B20A28D9D35F
:105560004F4642F2D01002F067FBD5F844150646CC
:1055700006F58054C86108EBC80000EB081005EB85
:10558000400808EBC70797F8481384F8311DB7F8AF
:105590004A03A4F8360D284604F62E5407F5527730
:1055A000FEF71CFB207001463879E08295F81D0358
:1055B000238903228DE80D0095F81C33E2782846F4
:1055C00000F012F9217800222846A4F62E54FFF7A5
:1055D0003BFA002101EBC10000EB011205EB420395
:1055E00093F84103062812D15FF0000003EBC002DC
:1055F00092F848733F0606D5B2F84A731FB192F885
:105600004923920708D4401CC0B20528EED3491C98
:10561000C9B20A29DED3484608EBC00090F8481307
:1056200084F8301DB0F84A03A4F8340D284604F677
:105630002C54FEF7D3FA2070228995F81D334FF0D1
:10564000020ACDE9003A0292014695F81C3322790C
:10565000284600F0C9F8217800222846A4F62C54E8
:10566000FFF7F2F95FF0000101EBC10000EB01125E
:1056700005EB420393F84103062812D15FF00000C6
:1056800003EBC00292F848733F0606D4B2F84A739F
:105690001FB192F84923920708D4401CC0B20528D4
:1056A000EED3491CC9B20A29DED3484608EBC00034
:1056B00090F8481384F82F1DB0F84A03A4F8320D6F
:1056C000284604F62D54FEF789FA20700146B4F8F6
:1056D000050095F81D230092CDE901A0574695F8E5
:1056E0001C33A278284600F07FF821780022284653
:1056F000FFF7AAF906F50056E7720020C6F8CC01BC
:10570000E0732846BDE8FE4F00F075B92DE9F0477B
:105710008046D0F844050027BA46C4694FF0010915
:1057200004F5805696F8380D062857D2DFE800F0C9
:10573000530C035614290121404600F069F9050075
:105740004DD186F8389D4AE02146404600F056F893
:10575000050044D1042011E004F60411404600F095
:10576000AFF805003BD1D4F8040900E07F1CB84233
:10577000FCD804F500540520C4F8C8A186F8380DFB
:105780002DE004F50057D7F8C80100EB001104EB39
:10579000411204EB800002F51262D0F8081940466D
:1057A00000F0DCF805001AD1D7F8C801401CC7F892
:1057B000C801D4F80419884211D386F838ADC7E976
:1057C00072A9D4F80809C6F8180DD8F894254046EF
:1057D0000221904703E04046FFF7FDFD00252846E3
:1057E000BDE8F08700207047FEB508AF97E870006D
:1057F0008DE87000FFF700F90020FEBDF0B5064609
:10580000D0F844050F460125C16989B001F58054DF
:1058100094F8610D012802D0022833D129E001F566
:10582000005041F6845211440227C0E96B710021F7
:10583000C0F8B411C0F8C01141F20102C0F8B811AB
:10584000ADF80020D0F8A8210192D0F8A42102924E
:10585000D0F8A421521CC0F8A4218DF8201069466C
:10586000304600F024FA012084F8600D84F8617D50
:1058700008E0304600F000F9050003D13946304613
:10588000FCF7B6FE09B02846F0BD02460020D2F86B
:105890004425D26902F5C67202F5005232F8023C84
:1058A0000B80D3694B6013688B605368CB6093683F
:1058B0000B61D3684B6113698B615269CA61704790
:1058C000F0B50646D0F844050F460125C16989B0F8
:1058D00001F5805494F8610D012802D002283AD1D4
:1058E00029E001F5005041F6845211440227C0E935
:1058F0006B710021C0F8B411C0F8C01141F204026C
:10590000C0F8B811ADF80020D0F8A8210192D0F865
:10591000A4210292D0F8A421521CC0F8A4218DF831
:1059200020106946304600F0C2F9012084F8600D6D
:1059300084F8617D0FE0304600F09EF805000AD142
:10594000D6F8440541F690510022C0690144381D43
:10595000FCF708FF386009B02846F0BD2DE9F0419A
:105960000646D0F844050F460125C1698AB001F505
:105970008054904694F8610D012802D0022836D157
:105980002BE001F5005041F684524FF0020811441B
:10599000C0E96B810021C0F8B411C0F8C011C0F893
:1059A000B81141F20501ADF80010D0F8A81101912D
:1059B000D0F8A4110291D0F8A411491CC0F8A41188
:1059C000039701278DF820706946304600F06FF983
:1059D00084F8607D84F8618D09E0304600F04CF871
:1059E000050004D1424639463046FCF7DEFE0AB0D7
:1059F0002846BDE8F081D0F844050021C06900F5D3
:105A0000805080F8601D012180F8611D00207047E2
:105A100070B5D0F8442501268AB0D46904F58055C4
:105A200095F8612D012A02D0022A22D11EE004F548
:105A3000D27404F500540022C4E90021A26041F2AE
:105A40000202ADF800200191226802922268521CE5
:105A50002260039101248DF82040694600F027F967
:105A600085F8604D022085F8610D02E000F004F831
:105A700006460AB0304670BD2DE9F04F0646D0F814
:105A800044054FF001088BB0C569474605F58054C1
:105A90004FF0090994F8600D4FF0070B4FF0000A22
:105AA0000A282BD2DFE800F0FF05132B397D8AD6B8
:105AB000E1FA0097B4F8640D94F82D3D82B241F6F6
:105AC000645029183046FEF7B3F8022066E094F8D7
:105AD0002D1D3046FEF748FF012802D002280BD0CA
